:020000040800F2
:10000000A807002041040008450200084702000834
:100010004B0200084F0200085302000800000000D5
:10002000000000000000000000000000570200086F
:1000300059020008000000005B0200085D02000891
:100040005B0400085B0400085B0400085B04000814
:100050005B0400085B0400085B0400085B04000804
:100060005B0400085B0400085B0400085B040008F4
:100070005B0400085B0400085B0400085B040008E4
:100080005B0400085B0400085B0400085B040008D4
:100090005B0400085B0400085B0400084D100008C6
:1000A0005B0400084B1300085B0400085B040008B5
:1000B0005B040008B1220008A32300085B040008C9
:1000C0005B0400085B0400085B0400085B04000894
:1000D0005B0400085B0400085B0400085B04000884
:1000E0005B0400085B0400085B0400085B04000874
:1000F0005B0400085B0400085B0400085B04000864
:100100005B0400085B0400085B0400085B04000853
:100110005B0400085B0400085B0400085B04000843
:100120005B0400085B0400085B0400085B04000833
:1001300000F002F800F045F80AA090E8000C8244B4
:100140008344AAF10107DA4501D100F03AF8AFF291
:10015000090EBAE80F0013F0010F18BFFB1A43F0A5
:10016000010318471C3D00003C3D0000103A24BF2D
:1001700078C878C1FAD8520724BF30C830C144BF0C
:1001800004680C607047000000230024002500264E
:10019000103A28BF78C1FBD8520728BF30C148BFEA
:1001A0000B607047642903F0C181002070471FB5C0
:1001B0009DE8030003F034FA03F009FA1FBD10B5FF
:1001C00010BD03F001FB1146FFF7F1FF00F022F82C
:1001D00003F01FFB03B4FFF7F2FF03BC03F04CFB7B
:1001E0000B49D1F800C04A685CF8043B1068184419
:1001F00042F8040B8C4528BFA1F1DC0C8A4228BFD1
:10020000A1F1DC02C1F800C04A6020F00040704754
:100210003C01002002F08EFD02F065FE02F05EFC63
:1002200002F061FE02F0B6FD02F0EAFD02F0BCFD54
:1002300002F010FE02F0ECF802F00FF902F06BFF92
:1002400000BFFEE7704700BFFEE700BFFEE700BF4C
:10025000FEE700BFFEE77047704770477047000039
:100260000CB50020019000906C48006840F480308C
:100270006A49086000BF6948006800F400300090D7
:100280000198401C0190009818B90198B0F5A06F32
:10029000F1D16248006800F4003010B101200090F4
:1002A00001E0002000900098012843D15C480068DC
:1002B00040F010005A4908600846006820F003002A
:1002C00008600846006840F0020008605348406833
:1002D000524948600846406848600846406840F413
:1002E000806048600846406820F47C1048600846FA
:1002F000406840F4E81048600846006840F08070AC
:10030000086000BF4548006800F000700028F9D080
:100310004248406820F00300404948600846406871
:1003200040F00200486000BF3C48406800F00C000C
:100330000828F9D10CBD10B5FFF792FF10BD10B51C
:100340003648006840F001003449086008464068BB
:10035000344908403149486008460068324908403D
:100360002E4908600846006820F48020086008468E
:10037000406820F4FE0048604FF41F008860FFF7DB
:10038000DAFF4FF000602949086010BD10B5002168
:1003900000200022214B5B6803F00C0121B10429ED
:1003A00006D0082928D107E0214B224C236027E002
:1003B0001F4B204C236023E0184B5B6803F4701044
:1003C000164B5B6803F48032022303EB904022B9A2
:1003D000194B4343174C23600DE0104B5B6803F44B
:1003E000003323B1144B4343124C236003E0104B02
:1003F0004343104C236003E00D4B0E4C236000BFC1
:1004000000BF064B5B68C3F303130C4CE15C094B64
:100410001B68CB40074C236010BD00000010024059
:10042000002002400000FFF8FFFFF6FE08ED00E0AC
:1004300000127A000000002000093D0004000020A6
:100440000948804709480047FEE7FEE7FEE7FEE768
:10045000FEE7FEE7FEE7FEE7FEE7FEE704480549A4
:10046000054A064B704700003F03000831010008B1
:10047000A8010020A8070020A8030020A80300204E
:1004800010B50446CC48844208D10121042000F074
:100490002DFB0021042000F029FB46E0C7488442E0
:1004A00008D10121082000F021FB0021082000F0E4
:1004B0001DFB3AE0C248844208D10121102000F01F
:1004C00015FB0021102000F011FB2EE0BD488442F6
:1004D00008D10121202000F009FB0021202000F09C
:1004E00005FB22E0B848844208D10121402000F0F9
:1004F000FDFA0021402000F0F9FA16E0B3488442EA
:1005000008D10121802000F0F1FA0021802000F0C4
:10051000EDFA0AE0AE48844207D10121801500F0CF
:10052000E5FA0021A01500F0E1FA10BD10B5012197
:10053000084600F0DBFA0021012000F0D7FA10BDD8
:100540002DE9F0410246002500260020002300246A
:10055000002791F803C00CF00F0591F803C00CF0D0
:10056000100CBCF1000F03D091F802C04CEA050555
:1005700091F800C0BCF1000F31D0146800202BE0CE
:100580004FF0010C0CFA00F3B1F800C00CEA0306BE
:100590009E4220D183004FF00F0C0CFA03F7BC43AE
:1005A00005FA03FC4CEA040491F803C0BCF1280FDF
:1005B00006D14FF0010C0CFA00FCC2F814C00AE09E
:1005C00091F803C0BCF1480F05D14FF0010C0CFAB3
:1005D00000FCC2F810C0401C0828D1D31460B1F848
:1005E00000C0BCF1FF0F34DD546800202EE000F1A4
:1005F000080C4FF0010808FA0CF3B1F800C00CEA3F
:1006000003069E4221D183004FF00F0C0CFA03F732
:10061000BC4305FA03FC4CEA040491F803C0BCF1A6
:10062000280F05D100F1080C08FA0CF8C2F8148064
:1006300091F803C0BCF1480F07D100F1080C4FF04E
:10064000010808FA0CF8C2F81080401C0828CED324
:100650005460BDE8F0814FF6FF7101800221817086
:100660000421C17070470246002093680B400BB113
:10067000012000E0002070470146886880B2704782
:1006800002460020D3680B400BB1012000E000209F
:1006900070470146C86880B2704701617047416188
:1006A00070470AB1016100E041617047C160704765
:1006B0004FF480320A43826181618261826982697A
:1006C000704702460020434B18684FF6807318406D
:1006D00040EA021008433F4B186070473E49C8612A
:1006E0007047F0B50A46002300240021002500F0E1
:1006F0000046B6F1004F02D1364EF16901E0354EA9
:100700007168C0F3034583B200F44016B6F5401F8C
:1007100008D121F070612F4E766826F070662D4F5B
:100720007E6012E000F48016B6F5801F06D1032625
:1007300006FA05F4A14341F0706106E0460D36016A
:1007400003FA06F6B14341F0706122B1460D36015D
:1007500003FA06F6314300F00046B6F1004F02D12D
:100760001C4EF16101E01B4E7160F0BD30B50022FE
:100770008B071C0F0F2303FA04F2164B08338C105F
:1007800053F824309343134C08348D1044F825302B
:1007900023468C1053F824308C07240F00FA04F4FD
:1007A00023430C4C08348D1044F8253030BD0A49E1
:1007B000DC3108607047000000080140000C014077
:1007C000001001400014014000180140001C0140CD
:1007D000002001400000014000002042DF48006886
:1007E00040F00100DD49086008464068DC490840E7
:1007F000DA49486008460068DA490840D749086085
:100800000846006820F4802008600846406820F40C
:10081000FE0048604FF41F0088607047CF490968A8
:1008200021F48031CD4A11601146096821F48021FC
:100830001160B0F5803F03D0B0F5802F0ED106E0F7
:10084000C649096841F48031C44A116007E0C349D0
:10085000096841F4A021C14A116000E000BF00BF57
:10086000704710B501460022002300204A11012ADA
:1008700002D1BA4C236806E0022A02D1B74C236A9F
:1008800001E0B64C636A01F01F02012494401C4051
:100890000CB1012000E0002010BD38B50020009010
:1008A0000024002500BF3120FFF7DBFF054600983C
:1008B000401C00900098B0F5A06F01D0002DF2D040
:1008C0003120FFF7CEFF08B1012400E000242046CC
:1008D00038BD01460020A14A106820F0F80040EA27
:1008E000C10010607047A0490860704702460020B0
:1008F0009A4B586820F47C1042EA01031843974B46
:100900005860704798490866704701460020934A2E
:10091000506820F003000843506070478F484068DB
:1009200000F00C007047014600208C4A506820F00F
:10093000F00008435060704701460020874A506825
:1009400020F4E06008435060704701460020834A6D
:10095000506820F4605040EAC1005060704729B1EF
:100960007E4A527A02437D4B5A7204E07B4A527AA5
:1009700082437A4B5A7270477B49D831086070477E
:1009800001460020754A506820F4404008435060FA
:1009900070470021714A20321170704A82F820108D
:1009A000012802D004280AD104E001216B4A203238
:1009B000117005E00521694A2032117000E000BF86
:1009C00000BF70476949086070476449096A01437C
:1009D000624A11627047654944390860704730B512
:1009E00000210022002400235C4D6D6805F00C01FD
:1009F00021B1042905D0082923D105E05C4D05600B
:100A000022E05B4D05601FE0544D6D6805F47012E7
:100A1000524D6D6805F48034022505EB92421CB9F5
:100A2000544D554305600BE04C4D6D6805F40035A1
:100A30001DB1504D5543056002E04D4D55430560D5
:100A400002E04B4D056000BF00BF444D6D6805F0EE
:100A5000F0010909484D6B5C0568DD4045603F4D7C
:100A60006D6805F4E061090A434D6B5C4568DD4043
:100A700085603A4D6D6805F46051C90A3E4D6B5C66
:100A80004568DD40C560354D6D6805F44041890B12
:100A90003A4D6B5CC568B5FBF3F5056130BD29B116
:100AA0002E4A526902432D4B5A6104E02B4A526987
:100AB00082432A4B5A61704729B1284A92690243FE
:100AC000264B9A6104E0254A92698243234B9A613E
:100AD000704729B1214AD2690243204BDA6104E010
:100AE0001E4AD26982431D4BDA61704729B11B4A05
:100AF000D2680243194BDA6004E0184AD268824394
:100B0000164BDA60704729B1144A12690243134B3D
:100B10001A6104E0114A12698243104B1A6170474E
:100B200012494039086070470F49C86470470B4943
:100B3000C87170470948406A40F0807007494862B0
:100B4000704701460020054A92680A400AB1012018
:100B500000E0002070470149887270470010024091
:100B60000000FFF8FFFFF6FE000042428004424210
:100B700000127A0000093D0014000020240000202B
:100B800010B50446FA48844208D101214015FFF708
:100B9000ADFF00216015FFF7A9FF17E0F54884427B
:100BA00008D101210015FFF7A1FF00212015FFF753
:100BB0009DFF0BE0F048844208D10121C803FFF7F4
:100BC00095FF00214FF40040FFF790FF10BD30B5B6
:100BD0000246002000235068E84C20400D790C6844
:100BE00044EA0524204350609068E54C2040D1E958
:100BF00002542C434D7944EA450420439060D06A66
:100C000020F470000C7C641EE4B2234340EA0350DD
:100C1000D06230BD00210160017141718160C1600D
:100C200001210174704721B1826842F001028260A3
:100C300003E0826822F001028260704721B182687D
:100C400042F48072826003E0826822F480728260E3
:100C5000704710B50023CBB21AB144681C434460FE
:100C600002E044689C43446010BD816841F0080183
:100C700081607047014600208A6802F008020AB1CC
:100C8000012000E000207047816841F0040181608C
:100C90007047014600208A6802F004020AB1012070
:100CA00000E00020704721B1826842F4A002826017
:100CB00003E0826822F4A0028260704701460020AF
:100CC0008A6802F480020AB1012000E00020704727
:100CD00010B50A4600210023416821F46041531EEB
:100CE00041EA4331416010BD21B1426842F40062E3
:100CF000426003E0426822F4006242607047F0B54F
:100D000004460D4600200021092D11DDE068A5F103
:100D10000A0606EB4607072606FA07F18843A5F1FF
:100D20000A0606EB460603FA06F10843E0600CE00B
:100D3000206905EB4507072606FA07F1884305EB0E
:100D4000450603FA06F108432061072A0FDA606BB3
:100D5000561E06EB86071F2606FA07F18843561E25
:100D600006EB860605FA06F10843606322E00D2AC9
:100D70000FDA206BD61F06EB86071F2606FA07F14F
:100D80008843D61F06EB860605FA06F10843206362
:100D900010E0E06AA2F10D0606EB86071F2606FAB0
:100DA00007F18843A2F10D0606EB860605FA06F167
:100DB0000843E062F0BD21B1826842F48012826093
:100DC00003E0826822F48012826070470146C86C9A
:100DD00080B2704766484C300068704721B1426865
:100DE00042F48062426003E0426822F48062426022
:100DF000704721B1426842F48052426003E0426889
:100E000022F48052426070470A460021816821F432
:100E1000E04111438160704721B1826842F4004291
:100E2000826003E0826822F400428260704721B150
:100E3000826842F40212826003E0826822F40212A5
:100E400082607047014600208A6802F400120AB1ED
:100E5000012000E000207047F0B504461546002050
:100E600000220026092911DDE068A1F10A0707EB3D
:100E7000470C072707FA0CF29043A1F10A0707EB8A
:100E8000470703FA07F21043E0600CE0206901EB2A
:100E9000410C072707FA0CF2904301EB410703FAD4
:100EA00007F210432061A06BC0F30156EF1C06F15E
:100EB000010CA7EB0C0707EB870C1F2707FA0CF2B6
:100EC0009043EF1C06F1010CA7EB0C0707EB87071B
:100ED00001FA07F21043A063F0BD10B50A460021E5
:100EE0000023816B21F44011531E41EA03518163B9
:100EF00010BD08B5002300930090009B0B440093A5
:100F0000009B1A6008BD08B50246002000900092C0
:100F100001F12800009B184400900098006880B2FE
:100F200008BD0A4600214168164B19401143416033
:100F300070474162826270470A460021416821F091
:100F40001F0111434160704740B1094908310968E8
:100F500041F40001064A0832116007E004490831F3
:100F6000096821F40001024A08321160704700004C
:100F70000024014000280140003C0140FFFEF0FF3A
:100F8000FDF7F1FFFFFD3FFF0246002013680B4015
:100F90000BB1012000E000207047CA430260704797
:100FA00070B502460020002300240B125568CEB213
:100FB00005EA060415681D4015B10CB1012000E0DA
:100FC000002070BD00220A12D34303607047000066
:100FD0001FB501211120FFF76FFD4FF48070ADF8B0
:100FE000000004208DF8030003208DF802006946FC
:100FF0001C48FFF7A5FA4FF4A06000F0C3F81720D3
:101000008DF8040001208DF8050000208DF8060001
:1010100001208DF8070001A800F0B9F84FF48070A6
:1010200000F0A7F808210220FFF7A0FB4FF4807022
:10103000029000208DF80C000C208DF80D0001208E
:101040008DF80E0002A800F01DF81FBD10B54FF47A
:10105000807000F07DF818B14FF4807000F089F8CE
:1010600010BD000000100140002044490860091D27
:101070000860091D0860091D086041483F49143196
:101080000860704700213D498279002A3AD00A461B
:10109000126803689A430B461A600A1D12680368B7
:1010A0009A430B1D1A60027911440A6803681A43B7
:1010B0000A60324A0832126803689A432F4B083399
:1010C0001A601A1D126803689A432C4B0C331A607D
:1010D0004279102A0ED11A1F126803681A43274B4F
:1010E00008331A601A1D126803681A43234B0C3325
:1010F0001A600DE02149427911440A6803681A43D5
:101100000A6005E0027911440A6803689A430A609C
:1011100070470021016001710C2141710021817132
:1011200070471649103109680143144A10321160A2
:10113000704701460020114A143212680A400AB171
:10114000012000E0002070470C491431086070470E
:10115000014600200022094B1B6803EA0102074BED
:1011600014331B680B4013B10AB1012000E00020CA
:1011700070470249143108607047000000040140C4
:10118000FFFF0F0031490143314A1160704770B5CC
:10119000002100230F22C47804B32D4C246804F4EA
:1011A000E064C4F5E064210AC1F10403CA40447854
:1011B00004FA03F18478144021430901254C067890
:1011C000A155047804F01F050124AC4005786D1189
:1011D000AD0005F1E025C5F8004109E0047804F010
:1011E0001F050124AC401C4D0678761145F82640B9
:1011F00070BD1A4A0A400243154B1B1F1A60704704
:1012000039B1134A121D12680243114B1B1D1A609B
:1012100006E00F4A121D126882430D4B1B1D1A6017
:101220007047042808D14FF0E021096941F004011A
:101230004FF0E022116107E04FF0E021096921F051
:1012400004014FF0E0221161704700000000FA0530
:101250000CED00E000E400E080E100E080FFFF1F13
:101260002DE9F04704464FF0000900206B49086063
:10127000204602F0AEFC0746694A6A4B02F022FBA8
:10128000054602F077FC814600BF64480068484587
:10129000FBD1BDE8F08730B589B004460121C80212
:1012A000FFF70AFC40F20770ADF80C000120ADF822
:1012B00008000020ADF80E00ADF80A008DF810000F
:1012C00002A9594800F08CF96020ADF81400012003
:1012D000ADF816000020ADF81800ADF81C00ADF810
:1012E0001E00ADF82000ADF822005049204602F063
:1012F000FBFC054602F0D8FC80B2ADF81A0005A947
:10130000494800F0AAF90821474800F0F5FD1920E6
:101310008DF8040001208DF8050000208DF80600EE
:1013200001208DF8070001A8FFF731FF01213E4899
:1013300000F0B2FC01213C4800F0BAFC012241213E
:10134000394800F0C4FC09B030BD10B50121364861
:1013500000F06BFF20B131480068401C2F49086045
:101360000121314800F072FF10BD30B587B004464E
:1013700001210846FFF7ADFBC720ADF804004FF48C
:10138000E150ADF800000020ADF80600ADF8020015
:101390008DF8080069464FF0804000F021F9602088
:1013A000ADF80C000120ADF80E000020ADF81000E3
:1013B000ADF81400ADF81600ADF81800ADF81A003D
:1013C0001B49204602F090FC054602F06DFC80B2FD
:1013D000ADF8120003A94FF0804000F018FA082180
:1013E000C80600F0A8FD0121880700F055FC07B0F1
:1013F00030BD08B501210C20FFF75EFB4FF4807073
:10140000ADF8000018208DF8030003208DF80200CD
:1014100069460848FFF794F808BD0000280000203E
:101420009A9999999999A93F002C01400000E144AB
:10143000000048430008014010B50446FE488442BD
:1014400008D10121C014FFF751FB0021E014FFF780
:101450004DFBC4E0B4F1804F08D101210846FFF7ED
:1014600052FB00210120FFF74EFBB8E0F348844215
:1014700008D101210220FFF746FB00210220FFF7DF
:1014800042FBACE0EE48844208D101210420FFF782
:101490003AFB00210420FFF736FBA0E0E948844234
:1014A00008D101210820FFF72EFB00210820FFF7BB
:1014B0002AFB94E0E448844208D101211020FFF780
:1014C00022FB00211020FFF71EFB88E0DF4884424A
:1014D00008D101212020FFF716FB00212020FFF773
:1014E00012FB7CE0DA48844208D101214014FFF766
:1014F000FDFA00216014FFF7F9FA70E0D548844244
:1015000009D10121C804FFF7F1FA00214FF40020AE
:10151000FFF7ECFA63E0D048844209D101210805C5
:10152000FFF7E4FA00214FF48010FFF7DFFA56E0EE
:10153000CA48844209D101214805FFF7D7FA0021A2
:101540004FF40010FFF7D2FA49E0C548844208D1B1
:1015500001214020FFF7D7FA00214020FFF7D3FAFE
:101560003DE0C048844208D101218020FFF7CBFA3A
:1015700000218020FFF7C7FA31E0BB48844208D140
:1015800001218015FFF7BFFA0021A015FFF7BBFA74
:1015900025E0B648844209D101210804FFF7A6FAE4
:1015A00000214FF48030FFF7A1FA18E0B0488442E0
:1015B00009D101214804FFF799FA00214FF40030C6
:1015C000FFF794FA0BE0AB48844208D1012188046C
:1015D000FFF78CFA00214FF48020FFF787FA10BD47
:1015E00000220288944B98420ED0994B98420BD01F
:1015F000B0F1804F08D0914B984205D0904B984263
:1016000002D0904B984204D14FF68F731A404B880A
:101610001A438D4B984207D08C4B984204D04FF61A
:10162000FF431A40CB881A4302808B8883850B883E
:101630000385814B98420BD0854B984208D08B4B49
:10164000984205D08A4B984202D08A4B984201D1E9
:101650000B7A038601238382704770B50024002231
:101660000023058C4FF6FE7635400584028C838876
:10167000048B4FF68F752C40B51E2C400D882C43E3
:10168000751E2A400D892A434D882A436A4DA84277
:101690000BD06F4DA84208D0744DA84205D0744DB0
:1016A000A84202D0734DA84213D14FF6F7752A40D5
:1016B0004D892A434FF6FB752A408D882A434FF601
:1016C000FF652B404FF6FF552B408D892B43CD896D
:1016D0002B4383800483CD888586028470BD70B5DA
:1016E000002400220023058C4FF6EF763540058458
:1016F000028C8388048B48F6FF752C404FF6FF451B
:101700002C400D884FF6FF7606EA05252C434FF650
:10171000DF752A400D8906EA05152A434D8806EA39
:1017200005152A43444DA84202D0494DA8421DD177
:101730004FF67F752A404D894FF6FF7606EA05156C
:101740002A434FF6BF752A408D8806EA05152A43BD
:101750004FF6FF352B404FF2FF752B408D8906EA7F
:1017600085052B43CD8906EA85052B4383800483B9
:10177000CD880587028470BD70B500240022002347
:10178000058C4FF6FF6635400584028C8388848B78
:101790004FF68F752C404FF6FC752C400D882C436E
:1017A0004FF6FF552A400D894FF6FF7606EA0525CC
:1017B0002A434D8806EA05252A431F4DA84202D038
:1017C000234DA8421DD14FF2FF752A404D894FF697
:1017D000FF7606EA05252A434FF6FF352A408D8815
:1017E00006EA05252A434EF6FF752B404DF6FF7598
:1017F0002B408D8906EA05152B43CD8906EA051590
:101800002B4383808483CD888587028470BD70B527
:10181000002200230024058C4EF6FF763540058417
:10182000038C8488828B48F6FF752A404FF6FF456B
:101830002A400D8820E00000002C014000040040F8
:1018400000080040000C0040001000400014004060
:1018500000340140004C0140005001400054014060
:1018600000180040001C00400020004000400140E3
:1018700000440140004801404FF6FF7606EA052586
:101880002A434DF6FF752B400D8906EA05352B439B
:101890004D8806EA05352B43FA4DA84202D0FA4D91
:1018A000A84208D14BF6FF752C408D894FF6FF7684
:1018B00006EA85152C4384808283CD88A0F84050A9
:1018C000038470BD828B4FF2FF331A408283828B78
:1018D0004FF6FF7303EA01231A4382837047F0B582
:1018E0000C461546002200210026078C4EF6FF7C90
:1018F00007EA0C070784828B018C4FF6FF7707EA13
:10190000043640F6FF473A404FF6FF7707EA0527CF
:101910003A434FF6FF7707EA03373A43D94FB842C5
:101920000ED0D94FB8420BD0B0F1804F08D0D74F6E
:10193000B84205D0D64FB84202D0D64FB84206D1F1
:101940004DF6FF77394046F48057394305E047F6B6
:10195000FF57394044F48057394382830184F0BDF6
:10196000828B4FF6F3731A408283828B0A43828301
:101970007047F0B50C461546002200210026078C62
:101980004FF6FF6C07EA0C070784828B018C4FF639
:10199000FF7707EA04264FF60C773A404FF6FF77B9
:1019A00007EA03172F433A43B64FB8420ED0B64F5B
:1019B000B8420BD0B0F1804F08D0B44FB84205D038
:1019C000B34FB84202D0B34FB84206D14FF6FF57DB
:1019D000394046F48077394305E04FF2FF573940EC
:1019E00044F48077394382830184F0BD028B4FF247
:1019F000FF331A400283028B4FF6FF7303EA012381
:101A00001A4302837047F0B50C46154600220021A8
:101A10000026078C4FF6EF7C07EA0C070784028B41
:101A2000018C4FF6FF7707EA041640F6FF473A406D
:101A30004FF6FF7707EA03373A434FF6FF7707EA97
:101A400005273A438F4FB8420ED08F4FB8420BD084
:101A5000B0F1804F08D08D4FB84205D08C4FB842BE
:101A600002D08C4FB84206D14FF6DF77394046F0AE
:101A70001007394305E04FF65F77394044F010070F
:101A8000394302830184F0BD028B4FF6F3731A4091
:101A90000283028B0A4302837047F0B50C46154659
:101AA00000220021068C4FF6FE773E400684028B12
:101AB000018C4FF60C7632407E1C06EA03162E434C
:101AC0003243704EB0420ED06F4EB0420BD0B0F1E8
:101AD000804F08D06D4EB04205D06D4EB04202D05E
:101AE0006C4EB04206D14FF6FD76314044F001060F
:101AF000314305E04FF6F576314044F001063143BD
:101B000002830184F0BD70B505460C465D488542F0
:101B10000ED05D4885420BD0B5F1804F08D05B48B0
:101B2000854205D05A48854202D05A48854200D1A4
:101B300000E000BF208850B92389A2886188284628
:101B4000FFF7ABFFE1882846FFF79EFF25E02088DE
:101B500004280AD12389A28861882846FFF753FF09
:101B6000E1882846FFF742FF17E0208808280AD1BD
:101B70002389A28861882846FFF7FBFEE188284672
:101B8000FFF7EEFE09E02389A28861882846FFF767
:101B9000A6FEE1882846FFF795FE70BD2DE9F041CD
:101BA00005460C4600260127608808B9022600E099
:101BB0000026A088012801D1022700E00127208803
:101BC000A0B92389A28861882846FFF766FFE188CB
:101BD0002846FFF759FF23893A4631462846FFF742
:101BE00012FFE1882846FFF701FF13E02389A2884E
:101BF00061882846FFF707FFE1882846FFF7F6FED1
:101C000023893A4631462846FFF747FFE1882846B0
:101C1000FFF73AFFBDE8F0810A884B881A438B88AA
:101C20001A43CB881A430B891A434B891A438B8971
:101C30001A43A0F8442070474FF6FF7181800021BD
:101C40000180C18041800172704700210180418084
:101C50008180C180018141818181C18170470021E2
:101C600001804180012181800021C1800181704774
:101C70000021018041808180C18001814181818179
:101C800070470000002C0140003401400004004077
:101C900000080040000C004021B1028842F001021F
:101CA000028004E002884FF6FE731A4002807047FB
:101CB00031B1B0F8442042F40042A0F8442005E0DD
:101CC000B0F84420C2F30E02A0F8442070471AB1C5
:101CD00083890B43838102E083898B43838170472F
:101CE0008182704741EA0203A0F8483070471AB178
:101CF00083890B43838102E083898B43838170470F
:101D000001894FF6F8721140018170470A4600219F
:101D100001894FF68F73194011430181704730B527
:101D200004460D4629462046FFF7F0FF208940F083
:101D30000700208130BD2DE9F04104460D461646CE
:101D40001F46602D06D13B46012231462046FFF753
:101D50005AFE05E03B46012231462046FFF79DFE34
:101D600029462046FFF7D2FF208940F00700208156
:101D7000BDE8F08130B50C4600210189C9B24FF6AB
:101D8000FF7505EA0325154325432943018130BD2D
:101D90002DE9F04105460E46174698460024434675
:101DA0003A4631462846FFF7E5FF2C894FF6F87092
:101DB000044044F007044FF68F70044044F0700470
:101DC0002C81BDE8F081F0B504460D4616461F464D
:101DD0003B46324629462046FFF7CCFF208940F497
:101DE00080402081F0BD0185828270470A46002133
:101DF00001884FF68F731940114301807047F0B589
:101E00000C4615461E460021002200230189028B44
:101E1000038C4FF6F877394021434FF6FC473A40A0
:101E200040F201173A434FF6DD773B404FF6FF771C
:101E300007EA06172F433B43018102830384F0BD69
:101E40000A460021018B4FF68F731940114301831D
:101E500070470A460021018B48F6FF7319404FF680
:101E6000FF7303EA02231943018370470A460021E6
:101E7000818B4FF68F7319401143818370470A4657
:101E80000021818B48F6FF7319404FF6FF7303EA78
:101E9000022319438183704721B1028842F08002F6
:101EA000028004E002884FF67F731A400280704778
:101EB00021B1828842F00402828004E082884FF6D9
:101EC000FB731A408280704721B1828842F0080279
:101ED000828004E082884FF6F7731A408280704750
:101EE00021B1828842F00102828004E082884FF6AC
:101EF000FE731A40828070470A460021018B4FF61C
:101F0000F77319401143018370470A460021018B82
:101F10004FF2FF7319404FF6FF7303EA0223194390
:101F2000018370470A460021818B4FF6F7731940F1
:101F30001143818370470A460021818B4FF2FF7362
:101F400019404FF6FF7303EA022319438183704758
:101F50000A460021018B4FF6FB73194011430183A0
:101F600070470A460021018B4FF6FF3319404FF6A8
:101F7000FF7303EA02231943018370470A460021D5
:101F8000818B4FF6FB7319401143818370470A46DA
:101F90000021818B4FF6FF3319404FF6FF7303EAA0
:101FA00002231943818370470A460021018B4FF6B3
:101FB0007F7319401143018370470A460021018B4A
:101FC000C1F30E014FF6FF7303EA022319430183A5
:101FD00070470A460021818B4FF67F7319401143E9
:101FE000818370470A460021818BC1F30E014FF6B1
:101FF000FF7303EA02231943818370470A460021D5
:10200000018C4FF6FD7319401143018470470A4655
:102010000021018C4FF6F77319401143018470477A
:102020000A460021018C4FF6DF7319404FF6FF730B
:1020300003EA02131943018470470A460021018C08
:102040004FF67F7319404FF6FF7303EA02131943EB
:10205000018470470A460021018C4FF6FF53194056
:102060004FF6FF7303EA02231943018470470A46BF
:102070000021018C4FF2FF7319404FF6FF7303EA02
:1020800002231943018470470A460021018C4DF652
:10209000FF7319404FF6FF7303EA023319430184BB
:1020A000704730B5002301248C40A3B2048C9C43BC
:1020B0000484048C02FA01F5ADB22C43048430BDD3
:1020C00030B5002304248C40A3B2048C9C430484C8
:1020D000048C02FA01F5ADB22C43048430BD70B516
:1020E0000346002000241846183001258D40ACB26C
:1020F0001D8CA5431D8409B1082909D100EB61009D
:10210000056825F0700505600568154305600EE05B
:102110000D1FC5F34E052844056825F4E04505600C
:1021200005684FF6FF7606EA02263543056070BD66
:1021300021B1028842F00202028004E002884FF6D8
:10214000FD731A400280704721B1028842F00402F8
:10215000028004E002884FF6FB731A400280704749
:1021600021B1828842F08002828004E082884FF6AA
:102170007F731A408280704702884FF6F7731A40C7
:10218000028002880A430280704782884FF68F736C
:102190001A40828082880A438280704702894FF603
:1021A000F8731A40028102890A430281704702894A
:1021B0004FF67F731A40028102890A4302817047F9
:1021C0008184704781857047818670470187704799
:1021D00081877047A0F84010704702884FF6FF4390
:1021E0001A40028002880A43028070470146888EA6
:1021F00070470146088F70470146888F7047014637
:10220000B1F8400070470146888C70470146088D40
:10221000704702460020138A0B400BB1012000E0FA
:1022200000207047CA430282704730B50246002042
:1022300000230024158A05EA0103958905EA0104B3
:1022400013B10CB1012000E0002030BDCA4302826E
:10225000704700001FB501210220FEF73AFC40F252
:102260000770ADF808000120ADF804000020ADF8BB
:102270000A00ADF8060001A91348FFF7B1F90122E1
:1022800011461148FFF723FD01210F48FFF704FD18
:102290001D208DF8000002208DF8010000208DF82F
:1022A000020001208DF803006846FEF770FF1FBD95
:1022B00010B501210448FFF7B8FF18B10121024809
:1022C000FFF7C4FF10BD00000004004000B589B056
:1022D00001210420FEF7FDFB01210820FEF7ECFBA5
:1022E0004FF4A060FEF74EFFC020ADF8200028207C
:1022F0008DF8230008A93248FEF722F9C0213048A2
:10230000FEF7CDF91D20ADF818000920ADF8140036
:102310000020ADF81A00ADF8160005A92948FFF70E
:102320005FF90020ADF808000220ADF80A00012096
:10233000ADF80C000020ADF80E000F20ADF8100035
:1023400002A92048FFF7DFFB0420ADF808000020B9
:10235000ADF80A000120ADF80C000020ADF80E0029
:102360000F20ADF8100002A91648FFF7CCFB1E2085
:102370008DF8040002208DF8050000208DF806007D
:1023800001208DF8070001A8FEF701FF01220621B8
:102390000C48FFF79CFC01210A48FFF77DFC09B0BF
:1023A00000BD10B502210748FFF73FFF0421054893
:1023B000FFF73BFF06210348FFF748FF10BD000071
:1023C000000C01400008004030B502460023002008
:1023D00000BF19E0002012E052F82050441C52F8CF
:1023E0002440A5420ADD52F82040451C52F82550F1
:1023F00042F82050451C42F8254000BF401CCC1A32
:10240000641E8442E8DC5B1C4C1E9C42E2DC30BD56
:1024100008B501210846FEF742FB01214FF4017087
:10242000FEF74AFB2820ADF8000000208DF80300DD
:1024300003208DF8020069465448FEF781F8022017
:10244000ADF8000048208DF8030003208DF802004D
:1024500069464E48FEF774F808BD00B591B04C4887
:1024600000F09CF84B4806904B48079000200890DD
:102470000220099000200A9080200B9040000C90D0
:1024800080000D9020200E9000020F9000201090F0
:1024900006A93F4800F024F901213D4800F04BF91E
:1024A0000020019001208DF808008DF809004FF4FC
:1024B000602003900020049002208DF8140001A9F0
:1024C00034484C38FEF783FB4FF44040FEF758FA8F
:1024D0000723012205212F484C38FEF710FC072363
:1024E000022203212B484C38FEF709FC0121294820
:1024F0004C38FEF7A3FB012126484C38FEF793FB2E
:1025000024484C38FEF7B1FB00BF22484C38FEF798
:10251000B1FB0028F9D11F484C38FEF7B5FB00BFCE
:102520001C484C38FEF7B5FB0028F9D101211948A9
:102530004C38FEF7B8FB11B000BD10B500210022E9
:102540000420002307E0144C24882144124C6488A2
:1025500022445C1CE3B2042BF5DB8908920840F6A8
:10256000FC04A14201D9032004E040F24474A142DA
:1025700000D2022040F6FC04A24201D9012004E06E
:1025800040F24474A24200D2002010BD0008014075
:10259000080002404C2401402C00002001684FF646
:1025A000FE72114001600021016041608160C160E4
:1025B0008D49884208D18C490839496841F00F019A
:1025C000894A083A51608AE087491431884208D123
:1025D00085490839496841F0F001834A083A516059
:1025E0007DE081492831884208D17F49083949680E
:1025F00041F470617C4A083A516070E07A493C319C
:10260000884208D178490839496841F47041764ACE
:10261000083A516063E074495031884208D17249E8
:102620000839496841F470216F4A083A516056E010
:102630006D496431884208D16B490839496841F4D1
:102640007001694A083A516049E067497831884227
:1026500008D165490839496841F07061624A083A11
:1026600051603CE06149884206D1011F096841F090
:102670000F01021F116032E05C491431884208D119
:102680005A49091F096841F0F001584A121F1160A8
:1026900025E056492831884208D15449091F096864
:1026A00041F47061514A121F116018E04F493C31EA
:1026B000884208D14D49091F096841F470414B4ACD
:1026C000121F11600BE049495031884207D1474938
:1026D000091F096841F47021444A121F11607047B4
:1026E00010B50022026847F6F0739A430C6A8B68B3
:1026F00023430C6923434C6923438C692343CC69EE
:1027000023434C6A23438C6A23431A430260CB68F9
:1027100043600B6883604B68C36010BD002101609B
:1027200041608160C160016141618161C16101629B
:1027300041628162704721B1026842F00102026089
:1027400004E002684FF6FE731A40026070471AB147
:1027500003680B43036002E003688B430360704728
:10276000416070470146486880B2704701460020CA
:10277000002201F080531BB11C4B083B1A6802E099
:10278000194B083B1A6802EA01030BB1012000E073
:102790000020704700F0805119B11449091F0860EA
:1027A00002E01149083948607047014600200022C4
:1027B00001F080531BB10D4B083B1A6802E00A4B35
:1027C000083B1A6802EA01030BB1012000E0002077
:1027D000704700F0805119B10449091F086002E0F8
:1027E0000149083948607047080002400804024067
:1027F00008B501217820FEF75FF910208DF803005D
:102800004FF45540ADF8000003208DF802006946F2
:10281000F648FDF795FE10208DF803004FF4AA400E
:10282000ADF8000003208DF802006946F048FDF77E
:1028300087FE10208DF803004FF4AA40ADF8000089
:1028400003208DF802006946EA48FDF779FE102062
:102850008DF803004020ADF8000003208DF8020041
:102860006946E548FDF76CFE08BD08B50121682002
:10287000FEF722F904208DF803004FF4A060ADF8B4
:1028800000006946D948FDF75BFE04208DF803007F
:102890004FF4AA40ADF800006946D548FDF750FE58
:1028A00004208DF803004FF4A040ADF80000694605
:1028B000D048FDF745FE08BD10B5044604F0010000
:1028C00028B14FF48061C948FDF7E7FE04E04FF4FA
:1028D0008061C648FDF7E3FEC4F3400028B14FF421
:1028E0008071C248FDF7D9FE04E04FF48071BF4803
:1028F000FDF7D5FEC4F3800028B14FF48041BC48F9
:10290000FDF7CBFE04E04FF48041B948FDF7C7FE68
:10291000C4F3C00028B14FF48051B548FDF7BDFEA7
:1029200004E04FF48051B248FDF7B9FEC4F3001043
:1029300028B14FF48061AE48FDF7AFFE04E04FF4DC
:102940008061AB48FDF7ABFEC4F3401028B14FF4F3
:102950008071A748FDF7A1FE04E04FF48071A44800
:10296000FDF79DFEC4F3801028B14FF48041A148CB
:10297000FDF793FE04E04FF480419E48FDF78FFE83
:10298000E00928B14FF480519A48FDF786FE04E033
:102990004FF480519748FDF782FE10BD10B5FFF748
:1029A00064FF4FF400419148FDF779FE4FF48041F8
:1029B0008E48FDF772FE4FF480518C48FDF76DFE96
:1029C00000BF4FF480518B48FDF74DFE0028F8D131
:1029D0004FF480518548FDF762FEFFF709FF10BDF7
:1029E00010B50446FFF7DAFF4FF400417F48FDF7CA
:1029F00056FE4FF480417D48FDF751FE4FF4805163
:102A00007A48FDF74AFE2046FFF756FF022000F005
:102A1000C3FC4FF480517548FDF741FE022000F0E1
:102A2000BBFC10BD10B50446FFF7B8FF4FF40041E2
:102A30006E48FDF732FE4FF480416C48FDF72FFEE3
:102A40004FF480516948FDF728FE2046FFF734FF18
:102A5000022000F0A1FC4FF480516448FDF71FFEF6
:102A6000022000F099FC10BD70B504460D46082CFC
:102A700001DA042D00DB70BD1DB904F18000C6B27F
:102A800010E0012D03D104F19000C6B20AE0022D3E
:102A900003D104F18800C6B204E0032D02D104F191
:102AA0009800C6B23046FFF79BFF00BFE3E770B562
:102AB00005460E4614463020FFF792FF3146284661
:102AC000FFF7D2FF06E02078FFF7ACFF022000F00E
:102AD00063FC641C20780028F5D170BD70B53420EB
:102AE000FFF77EFF002517E0002411E005F18001CB
:102AF000C8B2FFF775FF04F18001C8B2FFF770FF9D
:102B00000020FFF78FFF0020FFF78CFF601CC4B28E
:102B1000102CEBDB681CC5B2202DE5DB3620FFF75F
:102B20005FFF70BD10B54FF480513248FDF79BFD3B
:102B300004464FF480412F48FDF795FD40EA4400DC
:102B4000C4B24FF480712A48FDF78DFD40EA44007D
:102B5000C4B24FF480612648FDF785FD40EA440089
:102B6000C4B24FF480512248FDF77DFD40EA440095
:102B7000C4B24FF480411E48FDF775FD40EA4400A1
:102B8000C4B24FF480711948FDF76DFD40EA44006E
:102B9000C4B24FF480611548FDF765FD40EA44007A
:102BA000C4B2204610BD10B5FFF7F8FEFFF75DFE7A
:102BB0004FF400410D48FDF770FD4FF480410B4884
:102BC000FDF76BFD4FF480510848FDF766FD0A20C4
:102BD00000F0E2FBFFF7A6FF04464FF480510348E4
:102BE000FDF75DFDFFF704FE204610BD0014014017
:102BF000000C014000180140001001402DE9F05F79
:102C000004460D4691462846E91705EBD161C1F30C
:102C100047162846E91705EBD1614911A5EB41118B
:102C200001F0FF0B2046E11704EB1171C1F3071A05
:102C3000E11704EB11710911A4EB01124FF40041EB
:102C400041FA02F73420FFF7CBFE3620FFF7C8FE2B
:102C50000BF18001C8B2FFF7C3FE802101EBC60172
:102C60005144C8B2FFF7BCFEFFF79DFFFFF79BFF83
:102C70004FEA0028FFF797FF40EA0808B9F1000F74
:102C800002D128EA070701E047EA08070BF18001B3
:102C9000C8B2FFF7A5FE802101EBC6015144C8B2BE
:102CA000FFF79EFEC7F30720FFF7BCFEF8B2FFF761
:102CB000B9FEBDE8F09F2DE9F04704460D462846D1
:102CC000E91705EBD161C1F347162846E91705EB73
:102CD000D1614911A5EB411101F0FF092046E1172F
:102CE00004EB1171C1F30718E11704EB117109111D
:102CF000A4EB01124FF4004141FA02FA09F18001FC
:102D0000C8B2FFF76DFE802101EBC6014144C8B295
:102D1000FFF766FEFFF747FFFFF745FF0702FFF7E4
:102D200042FF074307EA0A0010B90020BDE8F08718
:102D30000120FBE710B5FFF75BFD40211848FDF7C8
:102D4000ACFC00F0F3FA4FF480611648FDF7A5FCE7
:102D5000022000F021FB3020FFF742FE022000F0AD
:102D60001BFB0C20FFF73CFE022000F015FB0120AE
:102D7000FFF736FE022000F00FFB0620FFF730FEC3
:102D8000022000F009FB8020FFF72AFE022000F05D
:102D900003FB10BD10B50120FFF722FE10BD00009F
:102DA000001001400018014070B50C2000F020FB1D
:102DB0000446022020603D2060600020A0600125C4
:102DC00012E00C2000F014FBFE4908600846006881
:102DD0008460022009680860C5F13D00F94909686E
:102DE0004860F84804686D1C042DEADD05E021798F
:102DF00020780122FFF702FFA468002CF7D170BDF4
:102E000010B500240AE0E0B201220021FFF7F6FE2F
:102E1000E0B201223F21FFF7F1FE641C462CF2DDF7
:102E200001240AE0E1B201220020FFF7E7FEE1B24F
:102E300001224620FFF7E2FE641C3E2CF2DDE2A2F6
:102E400000210520FFF733FEE1A202210520FFF754
:102E50002EFE10BD10B5E048006800B110BD0C207A
:102E600000F0C6FA0446FDF7BBF9452190FBF1F2EC
:102E700001FB1200401C2060FDF7B2F93E2190FBDF
:102E8000F1F201FB1200401C6060CE480068D3499B
:102E9000086016E0D14920680968096888420BD1AA
:102EA000CE49606809684968884205D1204600F02B
:102EB000CEFAFFF7CFFF08E0C84800688068C7492E
:102EC0000860C64800680028E4D100BFC24804601A
:102ED0000246126811790246126810780122FFF743
:102EE0008DFE00BFBAE710B5BDA200210846FFF76E
:102EF000DEFDC0A201210020FFF7D9FDBFA2022103
:102F00000020FFF7D4FD10BD1CB5FFF743FFBF48FD
:102F10000068012802D002280CD105E0BCA20021E3
:102F20000846FFF7C4FD05E0BDA200210846FFF7F3
:102F3000BEFD00BF00BFBE48BEA10268684600F0EB
:102F4000ADFA6A4601210020FFF7B1FD00BFFEE7A0
:102F500010B59C480068846811E09A4920680968A7
:102F6000096888420AD197496068096849688842B7
:102F700004D10220A5490860FFF7C6FFA468002C11
:102F8000EBD110BD10B58F480068006868B18D485E
:102F900000680068462808D08A480068406820B168
:102FA0008848006840683F2804D10120974908609C
:102FB000FFF7AAFF10BD10B50C2000F019FA044667
:102FC000FFF7E0FF9E48007848B97E480068006837
:102FD00020607C4800684068401E606028E0984897
:102FE0000078012809D1774800680068206075489A
:102FF00000684068401C60601AE091480078022830
:1030000009D1704800680068401E20606D48006863
:10301000406860600CE08A480078032808D169485D
:1030200000680068401C2060664800684068606076
:1030300064480068A06063480460006867490860ED
:10304000FFF786FF6449206809680968884229D12A
:103050006149606809684968884223D10DE05F4A88
:10306000126811795D4A126810780122FFF7C6FDD7
:103070005A48006880685949086058480068002824
:10308000EDD16B4800686F490968084468490860D9
:103090005148006800F0DBF900204F490860FFF755
:1030A000D9FE28E00DE04D4A126811794B4A1268AA
:1030B00010780122FFF7A2FD484800688068474960
:1030C000086046480068806880680028EBD1434A61
:1030D000126892681179414A126892681078002249
:1030E000FFF78CFD3D490968886800F0B0F90020C1
:1030F0003A490968886010BD10B509E04FF47A704C
:1031000000F04AF902215048FDF7ADFA00B900E09D
:10311000F4E700BF10BD08B54CA000680090002087
:1031200047490870F9E0424849A10268684600F042
:10313000B5F96A4601210520FFF7B9FC454844A1CD
:103140000268684600F0AAF96A4603210520FFF7E5
:10315000AEFCFFF7F2F938B939480078012803D0FE
:1031600000203749087021E0FFF7E7F9012806D170
:103170003348007818B101203149087016E0FFF794
:10318000DCF9022807D12E480078032803D002205A
:103190002B4908700AE0FFF7D0F9032806D1284828
:1031A0000078022802D00320254908700221264811
:1031B000FDF759FA20B9142000F0EEF802214BE097
:1031C00057E000003C00002053636F726500000070
:1031D000537065656400000040000020440000203A
:1031E000BFD8D6C6D2A1B8CBC0B4BFD8D6C6C9DF67
:1031F00000000000B5C4D2C6B6AF0000B4B9D6B165
:10320000B0B4CFC2D4DDCDA3000000005000002038
:10321000C4E3C4D4B4FCD7B2C7BDC1CB4747000098
:10322000C4E3B3D4C1CBD7D4BCBA47470000000035
:103230004800002053636F72653A25640000000067
:10324000580000204C0000200008014020202020D1
:1032500025640000540000203048FDF704FA40B90E
:1032600000BF02212D48FDF7FEF90028F9D0FFF735
:1032700043FF2B48006800280ADB2948006805281E
:1032800006DA01202749086005202749086036E052
:103290002348006805280ADB214800680F2806DA61
:1032A00002202049086004201F49086027E01C48CC
:1032B00000680F280ADB1A4800681E2806DA042076
:1032C0001849086003201849086018E0144800688D
:1032D0001E280ADB124800683C2806DA082011493B
:1032E000086002201049086009E00D4800683C2889
:1032F00005DB10200B49086001200B4908600A49D2
:10330000096801EBC10202EB01114FF6FF7202EAFC
:10331000C10000F041F8FFF74EFE04E7000801404D
:10332000480000204C0000205400002010B504206C
:10333000FDF777FF2A4800682A49B0FBF1F02A49D7
:10334000087008460078642148432849088010BD69
:103350000146254A12784A434FF0E0235A61002281
:103360009A611A46126942F001021A6100BF4FF0D9
:10337000E022106900F001021AB100F48032002A44
:10338000F5D04FF0E022126922F001024FF0E02365
:103390001A6100229A6170470146144A12884A4312
:1033A0004FF0E0235A6100229A611A46126942F0F6
:1033B00001021A6100BF4FF0E022106900F0010223
:1033C0001AB100F48032002AF5D04FF0E0221269E1
:1033D00022F001024FF0E0231A6100229A61704747
:1033E0000000002000127A005A0000205C0000203B
:1033F00070B5064600F0F8F8056806F10B0020F0FD
:103400000704B4429CBF002070BD2B466A68BAB165
:103410001068A04210D304F1080188423CBF5068F4
:10342000586007D35168101941601168091B016089
:1034300058601460101D70BD13465268002AE7D111
:103440002146284600F0D8F80028DED170BD70B5BE
:103450000446051F00F0C8F80068002C14BF44683B
:1034600070BD002C18BFAC423CBF20466468F8D346
:1034700001680A18AA4218BF456003D12A680546A8
:103480001144016028684119A1421CBF6C6070BDE5
:103490006168696021680844286070BD0FB41CB57C
:1034A000074B06AA7B4469460090059800F04DF949
:1034B0000020694600F05CF91CBC5DF814FB0000BC
:1034C000C90200002DE9F0410E46044600202062AA
:1034D0002046E168884730B3252805D0D4E901218A
:1034E0009047206A401CF2E7E168204600278847A1
:1034F000050018D0A5F14100192802D820354FF455
:1035000000673246294620462760FCF74BFE40B153
:10351000012804D0F61D26F007060836D8E7361D28
:10352000D6E72846DAE7206ABDE8F0812DE9F041C8
:103530000646002410687529314616A510D0AFF351
:103540000080002802DA404213A507E031688A07AC
:1035500001D512A502E0490704D511A5012401E017
:10356000AFF3008000210A2206F1240709E0B0FB36
:10357000F2FCB0FBF2F302FB1C003030785418462A
:10358000491C0028F3D123462A463046BDE8F041C5
:1035900000F07CB8000000002D0000002B000000AF
:1035A000200000000B4910B5A1F17C020A4CC2E9D1
:1035B0003712372106E000EB104342F82130074B69
:1035C00000FB03400B1EA1F10101F4DC10BD012042
:1035D000E8E70000DC000020E119D666CD0D01000F
:1035E0007047704770470000004870474C0100204A
:1035F000704770477047704738B504460A46002048
:103600006946AFF30080002808BF38BD0246009924
:10361000204600F0B7F8012038BD012000F0CCB8FA
:10362000F8B5AFF30080054600200C46102000BF1F
:103630000646A819A0420DD9324669460020AFF3CC
:103640000080070008BF00F0B7F80098A04218BF3C
:103650000546C419FFF7C8FF05600746F01D20F0B6
:1036600007004619284600F00AF8B44208BFF8BD22
:10367000A21B31463868BDE8F84000F083B800214D
:103680000160C0E901107047102070472DE9F04734
:103690000D4699469246044600F1240801688806C2
:1036A00004D5E06921F01001216000E00120A8426A
:1036B00001DD471B00E00027A1697A1902EB090030
:1036C000081AA0612078C00602D42046AFF300801B
:1036D000002608E0D4E901211AF806009047206A84
:1036E000401C761C20624E45F4DB2078C0060AD5CB
:1036F0002046AFF3008006E0D4E901213020904756
:10370000206A401C2062381EA7F10107F4DC07E0A4
:10371000D4E9012118F805009047206A401C206276
:10372000281EA5F10105F3DC2046AFF300802078C8
:10373000000602D50220BDE8F0870120FBE700006B
:1037400001694A1C02610878704700B58FB0CDE965
:1037500001310021059105497944CDE90310114655
:103760006846FFF7AFFE0FB000BD0000E5FFFFFFAA
:103770000A6802F8010B0A607047000000487047B1
:1037800044010020034640688C46002818BF884248
:103790003CBF03464068F8D318681844884207D0F5
:1037A0000CF1030020F00700001D411A521A0146D7
:1037B000081D0A60FFF74BBE10B500F035F8BDE8F4
:1037C000104000F02CB870477546FFF7D7FFAE46A3
:1037D00005006946534620F00700854618B020B51D
:1037E000FCF73CFEBDE820404FF000064FF000071C
:1037F0004FF000084FF0000B21F00701AC46ACE899
:10380000C009ACE8C009ACE8C009ACE8C0098D4605
:1038100070470446AFF300802046FCF7DBFC00282D
:1038200001D000F029B8704710B5012805D000215B
:1038300003A000F027F8012010BD09A1F8E700005F
:1038400053494752544D454D3A204F7574206F6689
:103850002068656170206D656D6F727900000000F1
:103860003A2048656170206D656D6F727920636FD5
:10387000727275707465640001491820ABBEFEE772
:103880002600020070B505460C460A2000E06D1CBB
:1038900000F011F835B128780028F8D102E0641C56
:1038A00000F009F814B120780028F8D1BDE8704084
:1038B0000A20AFF3008008B569468DF800000320A8
:1038C000ABBE08BD2DE9C04130B4DFF8A0C23CEA70
:1038D000111418BF3CEA131400F0EC8081EA0305D0
:1038E0001CEA111444EAD57418BF1CEA131500F041
:1038F000C780A4EB05044FF0004545EAC12145EA25
:10390000C32341EA505143EA525304F17F74994270
:1039100004F500344FEAC0204FEAC22208BF9042AB
:1039200000F09C804FEA13650FF24016765D4FEA77
:10393000134506FB05F7C7F1807706FB07F74FEA4B
:10394000D737A7FB03687642C8F58038A7FB06CEB9
:1039500038BFA8F1010807FB08E64FF0000EA6FBF0
:10396000028CE6FB03CEDCF1000CCEF1004E38BF3A
:10397000AEF1010EA6FB0C584FF000074FF000050A
:10398000E6FB0E87A1FB08C6A0FB07CE16EB0E06D2
:1039900045F10005E1FB076515F1E04E7EBFA4F59A
:1039A00080345FEA46066D4116F1800745F1000557
:1039B0004FEA17274FEA066647EA0567A6F1DE4693
:1039C000B6F1805F4FEA15251FD9384624F0010C67
:1039D00005EBC471BCF1FE6F01EB0C1102D8F0BC19
:1039E000BDE8008124425CBF01F5801E9EEAC47FD1
:1039F00002D4F0BCBDE80081244238D4F0BCA1F16F
:103A0000C041BDE8004100F049B94FEAD22242EA84
:103A100043524FEAD323A7FB02864FEAD02040EA65
:103A2000415007FB03661EEA0E0F4FEAD12105FB4A
:103A3000026658BFA6EB0056B6EB00564FEA520E90
:103A40004EEAC37E18EB0E0E56EB530EBDD518EBA7
:103A500002085E417F1C55F10005B6E74FF4801562
:103A60004FF000074FF000064FF00008ADE7F0BC44
:103A70004FF0000001F1C04101F00041BDE80081BC
:103A800011EA0C1F0CEA131500D00CE013EA0C1F0E
:103A900000F025804FF00000F0BC81EA030101F046
:103AA0000041BDE80081F0BCBDE8004181EA0301AE
:103AB00000F0F4B8F0BCBDE8004170B500F0A0F82B
:103AC000097EFC3E00F007B881EA03014FF00000D8
:103AD00001F00041704781EA030100F0DFB8F0BC5B
:103AE000BDE800414FF0000021497047FFFDFBF9A0
:103AF000F7F5F4F2F0EEEDEBE9E8E6E4E3E1E0DE21
:103B0000DDDBDAD8D7D5D4D3D1D0CFCDCCCBCAC892
:103B1000C7C6C5C4C2C1C0BFBEBDBCBBBAB9B8B7B9
:103B2000B6B5B4B3B2B1B0AFAEADACABAAA9A8A8AC
:103B3000A7A6A5A4A3A3A2A1A09F9F9E9D9C9C9B7A
:103B40009A99999897979695959493939291919025
:103B50008F8F8E8E8D8C8C8B8B8A898988888787B6
:103B60008685858484838382828181800000FF072B
:103B70000000F87F4FEA41034FEA5353A3F58063F7
:103B8000D3F11E03C8BFD3F1210C0CDD4FF000426E
:103B900042EAC12242EA505232FA03FC8CEAE17C4A
:103BA000ACEBE1707047102BC4BF0020704703F5E9
:103BB000787CBCF1FF3F04D06FF0004282EA210024
:103BC000704770B500F01CF84992248000207047BF
:103BD000F2E710F0004248BF4042B0FA80F310FA1A
:103BE00003F10AD0C3F11D0303F580634FEA41508E
:103BF00002EB035202EBD12170474FF000007047F7
:103C00000EF1020E2EF0030E5EF8046B364205D460
:103C1000012A43EB030515F5001F12D8012841EBDB
:103C2000010C1CF5001F0CD80ED14FEAD17C15F504
:103C3000001F0CEB4C0C0CF1020C08BF4CEBD37CBE
:103C400004E04FF0080C01E04FEAD37C0CEB4C058C
:103C500026FA05F606F00706B6F1040C06D20EEBBE
:103C6000860CBDE870404CF0010C6047DFE80CF0BA
:103C7000090B02024FF000414FF00000A1F50021B6
:103C800070BD19461046012851EB010418BFD4F548
:103C9000001484BF002001F0004170BD0808A0F5A9
:103CA00000114FEA31017047C10DD1F19E0206DBD0
:103CB0004FEA002343F0004323FA02F0704700422A
:103CC00007D54FEA4001B1F1FE4F02D24FF000009C
:103CD000704710B500F089F84992248000207047A1
:103CE0006FEA2000704700004FF47F0C1CEAD012EE
:103CF0001EBF1CEAD11392EA0C0F93EA0C0F00F0DE
:103D0000478090EA010F48BF42F480724FF0004CA8
:103D10004CEA00204CEA012102EB0302A0FB011354
:103D2000A2F50002002918BF43F001035B0028BF81
:103D30004FEA330342EB22425FEA132C4CEBC250B2
:103D40002EBFBCEB436FB2F57C0F70474FEA036C9C
:103D5000BCF1004F08BF20F00100B2F57C0F38BF66
:103D600070470BD582F0FF0212F5803FC8BF704745
:103D700000F1C040D8BF00F00040704700F5000CD3
:103D80005FEA4C0C48BF7047B0F1C04000F073B818
:103D900090EA010F0CEAD11348BF42F480726245E9
:103DA00038BF634504D280EA010000F0004070474C
:103DB00010B500F01AF800BF8900013E00F007B806
:103DC00000F009B85FEA410C5FEA1C6C08D080EA99
:103DD000010000F050B85FEA400C5FEA1C6CF6D1BD
:103DE0004FF00040A0F5800070470EF1020E2EF05B
:103DF000030E5EF8044B244204D44FEA4102B2F1B0
:103E00007F4F11D84FEA4003B3F17F4F0CD80ED14A
:103E10004FEAD07CB2F17F4F0CEB4C0C0CF1020C52
:103E200008BF4CEBD17C04E04FF0080C01E04FEAF6
:103E3000D17C0CEB4C0324FA03F404F00704B4F136
:103E4000040C06D20EEB840CBDE810404CF0010CC3
:103E50006047DFE80CF0070802024FF00040A0F5D1
:103E6000800010BD0846420018BFD2F1807288BFA2
:103E700000F0004010BDFF2141EAD050C00570475E
:103E8000A03E000800000020600000006C01000857
:103E9000003F00086000002048070000880100087B
:103EA00000A24A0400000000000000000102030418
:103EB00006070809000000000102030401020304D0
:103EC00006070809020406080000000000000000C0
:103ED00000000000000000000000000000000000E2
:103EE0000000000000000000000000000A000000C8
:103EF00000000000010000000200000000000000BF
:0400000508000441AA
:00000001FF
